{
  "_format": "hh-sol-artifact-1",
  "contractName": "ExpenseTracker",
  "sourceName": "contracts/ExpenseTracker.sol",
  "abi": [
    {
      "anonymous": false,
      "inputs": [
        {
          "indexed": true,
          "internalType": "uint256",
          "name": "expId",
          "type": "uint256"
        },
        {
          "indexed": true,
          "internalType": "address",
          "name": "contributor",
          "type": "address"
        },
        {
          "indexed": false,
          "internalType": "uint256",
          "name": "amount",
          "type": "uint256"
        },
        {
          "indexed": false,
          "internalType": "uint256",
          "name": "timestamp",
          "type": "uint256"
        }
      ],
      "name": "ContributionMade",
      "type": "event"
    },
    {
      "anonymous": false,
      "inputs": [
        {
          "indexed": false,
          "internalType": "uint256",
          "name": "expId",
          "type": "uint256"
        },
        {
          "indexed": false,
          "internalType": "string",
          "name": "titile",
          "type": "string"
        },
        {
          "indexed": false,
          "internalType": "string",
          "name": "description",
          "type": "string"
        },
        {
          "indexed": false,
          "internalType": "uint256",
          "name": "totalAmount",
          "type": "uint256"
        },
        {
          "indexed": false,
          "internalType": "uint256",
          "name": "timestamp",
          "type": "uint256"
        }
      ],
      "name": "ExpenseCreated",
      "type": "event"
    },
    {
      "anonymous": false,
      "inputs": [
        {
          "indexed": true,
          "internalType": "uint256",
          "name": "expenseId",
          "type": "uint256"
        },
        {
          "indexed": true,
          "internalType": "address",
          "name": "recipient",
          "type": "address"
        },
        {
          "indexed": false,
          "internalType": "uint256",
          "name": "amount",
          "type": "uint256"
        },
        {
          "indexed": false,
          "internalType": "uint256",
          "name": "timestamp",
          "type": "uint256"
        }
      ],
      "name": "ExpensePaidOut",
      "type": "event"
    },
    {
      "anonymous": false,
      "inputs": [
        {
          "indexed": true,
          "internalType": "uint256",
          "name": "expenseId",
          "type": "uint256"
        },
        {
          "indexed": false,
          "internalType": "uint256",
          "name": "totalContributors",
          "type": "uint256"
        },
        {
          "indexed": false,
          "internalType": "uint256",
          "name": "timestamp",
          "type": "uint256"
        }
      ],
      "name": "ExpenseSettled",
      "type": "event"
    },
    {
      "inputs": [
        {
          "internalType": "uint256",
          "name": "_expId",
          "type": "uint256"
        }
      ],
      "name": "contribute",
      "outputs": [],
      "stateMutability": "payable",
      "type": "function"
    },
    {
      "inputs": [
        {
          "internalType": "string",
          "name": "_title",
          "type": "string"
        },
        {
          "internalType": "string",
          "name": "_description",
          "type": "string"
        },
        {
          "internalType": "uint256",
          "name": "_totalAmount",
          "type": "uint256"
        }
      ],
      "name": "createExpense",
      "outputs": [
        {
          "internalType": "uint256",
          "name": "",
          "type": "uint256"
        }
      ],
      "stateMutability": "nonpayable",
      "type": "function"
    },
    {
      "inputs": [],
      "name": "expenseCount",
      "outputs": [
        {
          "internalType": "uint256",
          "name": "",
          "type": "uint256"
        }
      ],
      "stateMutability": "view",
      "type": "function"
    },
    {
      "inputs": [
        {
          "internalType": "uint256",
          "name": "",
          "type": "uint256"
        }
      ],
      "name": "expenses",
      "outputs": [
        {
          "internalType": "string",
          "name": "title",
          "type": "string"
        },
        {
          "internalType": "string",
          "name": "description",
          "type": "string"
        },
        {
          "internalType": "uint256",
          "name": "totalAmount",
          "type": "uint256"
        },
        {
          "internalType": "uint256",
          "name": "totalContributors",
          "type": "uint256"
        },
        {
          "internalType": "bool",
          "name": "isActive",
          "type": "bool"
        },
        {
          "internalType": "uint256",
          "name": "createdAt",
          "type": "uint256"
        },
        {
          "internalType": "bool",
          "name": "paidOut",
          "type": "bool"
        }
      ],
      "stateMutability": "view",
      "type": "function"
    },
    {
      "inputs": [
        {
          "internalType": "uint256",
          "name": "_expenseId",
          "type": "uint256"
        },
        {
          "internalType": "address",
          "name": "_contributor",
          "type": "address"
        }
      ],
      "name": "getContributions",
      "outputs": [
        {
          "internalType": "uint256[]",
          "name": "amounts",
          "type": "uint256[]"
        },
        {
          "internalType": "uint256[]",
          "name": "timestamps",
          "type": "uint256[]"
        }
      ],
      "stateMutability": "view",
      "type": "function"
    },
    {
      "inputs": [
        {
          "internalType": "uint256",
          "name": "_expenseId",
          "type": "uint256"
        }
      ],
      "name": "getExpenseDetails",
      "outputs": [
        {
          "internalType": "string",
          "name": "title",
          "type": "string"
        },
        {
          "internalType": "string",
          "name": "description",
          "type": "string"
        },
        {
          "internalType": "uint256",
          "name": "totalAmount",
          "type": "uint256"
        },
        {
          "internalType": "uint256",
          "name": "totalContributed",
          "type": "uint256"
        },
        {
          "internalType": "uint256",
          "name": "createdAt",
          "type": "uint256"
        },
        {
          "internalType": "bool",
          "name": "isActive",
          "type": "bool"
        },
        {
          "internalType": "address[]",
          "name": "contributors",
          "type": "address[]"
        }
      ],
      "stateMutability": "view",
      "type": "function"
    },
    {
      "inputs": [
        {
          "internalType": "uint256",
          "name": "_expenseId",
          "type": "uint256"
        },
        {
          "internalType": "address",
          "name": "_contributor",
          "type": "address"
        }
      ],
      "name": "getTotalContribution",
      "outputs": [
        {
          "internalType": "uint256",
          "name": "total",
          "type": "uint256"
        }
      ],
      "stateMutability": "view",
      "type": "function"
    },
    {
      "inputs": [
        {
          "internalType": "uint256",
          "name": "_expenseId",
          "type": "uint256"
        }
      ],
      "name": "withdraw",
      "outputs": [],
      "stateMutability": "nonpayable",
      "type": "function"
    }
  ],
  "bytecode": "0x6080604052348015600f57600080fd5b5061203f8061001f6000396000f3fe60806040526004361061007b5760003560e01c8063aafc92d61161004e578063aafc92d61461014e578063af4afe0a1461018c578063c1cbbca7146101cf578063c9a92a44146101eb5761007b565b80632e1a7d4d1461008057806352e7df5d146100a95780636eadc686146100d457806373036c0b14610111575b600080fd5b34801561008c57600080fd5b506100a760048036038101906100a2919061117b565b61022e565b005b3480156100b557600080fd5b506100be6104a2565b6040516100cb91906111b7565b60405180910390f35b3480156100e057600080fd5b506100fb60048036038101906100f69190611318565b6104a8565b60405161010891906111b7565b60405180910390f35b34801561011d57600080fd5b5061013860048036038101906101339190611401565b61062a565b60405161014591906111b7565b60405180910390f35b34801561015a57600080fd5b5061017560048036038101906101709190611401565b61071e565b6040516101839291906114ff565b60405180910390f35b34801561019857600080fd5b506101b360048036038101906101ae919061117b565b610a34565b6040516101c697969594939291906115d0565b60405180910390f35b6101e960048036038101906101e4919061117b565b610ba0565b005b3480156101f757600080fd5b50610212600480360381019061020d919061117b565b610ee3565b604051610225979695949392919061170b565b60405180910390f35b806001548110610273576040517f08c379a000000000000000000000000000000000000000000000000000000000815260040161026a906117db565b60405180910390fd5b600080600084815260200190815260200160002090508060040160009054906101000a900460ff16156102db576040517f08c379a00000000000000000000000000000000000000000000000000000000081526004016102d290611847565b60405180910390fd5b8060070160009054906101000a900460ff161561032d576040517f08c379a0000000000000000000000000000000000000000000000000000000008152600401610324906118b3565b60405180910390fd5b806002015481600301541015610378576040517f08c379a000000000000000000000000000000000000000000000000000000000815260040161036f9061191f565b60405180910390fd5b60008160030154905060018260070160006101000a81548160ff02191690831515021790555060003373ffffffffffffffffffffffffffffffffffffffff16826040516103c490611970565b60006040518083038185875af1925050503d8060008114610401576040519150601f19603f3d011682016040523d82523d6000602084013e610406565b606091505b505090508061044a576040517f08c379a0000000000000000000000000000000000000000000000000000000008152600401610441906119d1565b60405180910390fd5b3373ffffffffffffffffffffffffffffffffffffffff16857ff47b51d8d3d9ed7bf5d0413e16f0c0c7596455468db058d8c49909f173af51a784426040516104939291906119f1565b60405180910390a35050505050565b60015481565b60008073ffffffffffffffffffffffffffffffffffffffff163373ffffffffffffffffffffffffffffffffffffffff1603610518576040517f08c379a000000000000000000000000000000000000000000000000000000000815260040161050f90611a66565b60405180910390fd5b6000821161055b576040517f08c379a000000000000000000000000000000000000000000000000000000000815260040161055290611ad2565b60405180910390fd5b60006001600081548092919061057090611b21565b919050559050600080600083815260200190815260200160002090508581600001908161059d9190611d75565b50848160010190816105af9190611d75565b5083816002018190555042816006018190555060018160040160006101000a81548160ff0219169083151502179055507f75438a56fa90b1191be5e84be3ba420d3b4b240009888eade171b4145d2aafc88287878742604051610616959493929190611e47565b60405180910390a181925050509392505050565b6000826001548110610671576040517f08c379a0000000000000000000000000000000000000000000000000000000008152600401610668906117db565b60405180910390fd5b600080600086815260200190815260200160002060080160008573ffffffffffffffffffffffffffffffffffffffff1673ffffffffffffffffffffffffffffffffffffffff168152602001908152602001600020905060005b8180549050811015610715578181815481106106e9576106e8611ea8565b5b906000526020600020906002020160000154846107069190611ed7565b935080806001019150506106ca565b50505092915050565b606080836001548110610766576040517f08c379a000000000000000000000000000000000000000000000000000000000815260040161075d906117db565b60405180910390fd5b600080600087815260200190815260200160002060080160008673ffffffffffffffffffffffffffffffffffffffff1673ffffffffffffffffffffffffffffffffffffffff1681526020019081526020016000209050600081805490500361086657600067ffffffffffffffff8111156107e3576107e26111ed565b5b6040519080825280602002602001820160405280156108115781602001602082028036833780820191505090505b50600067ffffffffffffffff81111561082d5761082c6111ed565b5b60405190808252806020026020018201604052801561085b5781602001602082028036833780820191505090505b509350935050610a2c565b808054905067ffffffffffffffff811115610884576108836111ed565b5b6040519080825280602002602001820160405280156108b25781602001602082028036833780820191505090505b509350808054905067ffffffffffffffff8111156108d3576108d26111ed565b5b6040519080825280602002602001820160405280156109015781602001602082028036833780820191505090505b5092508060008154811061091857610917611ea8565b5b9060005260206000209060020201600001548460008151811061093e5761093d611ea8565b5b6020026020010181815250508060008154811061095e5761095d611ea8565b5b9060005260206000209060020201600101548360008151811061098457610983611ea8565b5b602002602001018181525050600181805490501115610a2a57806001815481106109b1576109b0611ea8565b5b906000526020600020906002020160000154846001815181106109d7576109d6611ea8565b5b602002602001018181525050806001815481106109f7576109f6611ea8565b5b90600052602060002090600202016001015483600181518110610a1d57610a1c611ea8565b5b6020026020010181815250505b505b509250929050565b6000602052806000526040600020600091509050806000018054610a5790611b98565b80601f0160208091040260200160405190810160405280929190818152602001828054610a8390611b98565b8015610ad05780601f10610aa557610100808354040283529160200191610ad0565b820191906000526020600020905b815481529060010190602001808311610ab357829003601f168201915b505050505090806001018054610ae590611b98565b80601f0160208091040260200160405190810160405280929190818152602001828054610b1190611b98565b8015610b5e5780601f10610b3357610100808354040283529160200191610b5e565b820191906000526020600020905b815481529060010190602001808311610b4157829003601f168201915b5050505050908060020154908060030154908060040160009054906101000a900460ff16908060060154908060070160009054906101000a900460ff16905087565b806001548110610be5576040517f08c379a0000000000000000000000000000000000000000000000000000000008152600401610bdc906117db565b60405180910390fd5b8160008082815260200190815260200160002060040160009054906101000a900460ff16610c48576040517f08c379a0000000000000000000000000000000000000000000000000000000008152600401610c3f90611f57565b60405180910390fd5b60003411610c8b576040517f08c379a0000000000000000000000000000000000000000000000000000000008152600401610c8290611fe9565b60405180910390fd5b6000806000858152602001908152602001600020905060008082600501805490501115610d055760008260080160003373ffffffffffffffffffffffffffffffffffffffff1673ffffffffffffffffffffffffffffffffffffffff168152602001908152602001600020805490501115610d0457600190505b5b80610d705781600501339080600181540180825580915050600190039060005260206000200160009091909190916101000a81548173ffffffffffffffffffffffffffffffffffffffff021916908373ffffffffffffffffffffffffffffffffffffffff1602179055505b8160080160003373ffffffffffffffffffffffffffffffffffffffff1673ffffffffffffffffffffffffffffffffffffffff16815260200190815260200160002060405180604001604052803481526020014281525090806001815401808255809150506001900390600052602060002090600202016000909190919091506000820151816000015560208201518160010155505034826003016000828254610e199190611ed7565b925050819055503373ffffffffffffffffffffffffffffffffffffffff16857ff9b7589b7a8d939b9da5dae90770378fe5fd7802be5d66432e85bedbdbfbcb7a3442604051610e699291906119f1565b60405180910390a38160020154826003015410610edc5760008260040160006101000a81548160ff021916908315150217905550847f81759f7a6d1e5a57582e83310669cbb46a61754136644586cb93ee90f55cebad836003015442604051610ed39291906119f1565b60405180910390a25b5050505050565b6060806000806000806060876001548110610f33576040517f08c379a0000000000000000000000000000000000000000000000000000000008152600401610f2a906117db565b60405180910390fd5b60008060008b8152602001908152602001600020905080600001816001018260020154836003015484600601548560040160009054906101000a900460ff1686600501868054610f8290611b98565b80601f0160208091040260200160405190810160405280929190818152602001828054610fae90611b98565b8015610ffb5780601f10610fd057610100808354040283529160200191610ffb565b820191906000526020600020905b815481529060010190602001808311610fde57829003601f168201915b5050505050965085805461100e90611b98565b80601f016020809104026020016040519081016040528092919081815260200182805461103a90611b98565b80156110875780601f1061105c57610100808354040283529160200191611087565b820191906000526020600020905b81548152906001019060200180831161106a57829003601f168201915b505050505095508080548060200260200160405190810160405280929190818152602001828054801561110f57602002820191906000526020600020905b8160009054906101000a900473ffffffffffffffffffffffffffffffffffffffff1673ffffffffffffffffffffffffffffffffffffffff16815260200190600101908083116110c5575b5050505050905098509850985098509850985098505050919395979092949650565b6000604051905090565b600080fd5b600080fd5b6000819050919050565b61115881611145565b811461116357600080fd5b50565b6000813590506111758161114f565b92915050565b6000602082840312156111915761119061113b565b5b600061119f84828501611166565b91505092915050565b6111b181611145565b82525050565b60006020820190506111cc60008301846111a8565b92915050565b600080fd5b600080fd5b6000601f19601f8301169050919050565b7f4e487b7100000000000000000000000000000000000000000000000000000000600052604160045260246000fd5b611225826111dc565b810181811067ffffffffffffffff82111715611244576112436111ed565b5b80604052505050565b6000611257611131565b9050611263828261121c565b919050565b600067ffffffffffffffff821115611283576112826111ed565b5b61128c826111dc565b9050602081019050919050565b82818337600083830152505050565b60006112bb6112b684611268565b61124d565b9050828152602081018484840111156112d7576112d66111d7565b5b6112e2848285611299565b509392505050565b600082601f8301126112ff576112fe6111d2565b5b813561130f8482602086016112a8565b91505092915050565b6000806000606084860312156113315761133061113b565b5b600084013567ffffffffffffffff81111561134f5761134e611140565b5b61135b868287016112ea565b935050602084013567ffffffffffffffff81111561137c5761137b611140565b5b611388868287016112ea565b925050604061139986828701611166565b9150509250925092565b600073ffffffffffffffffffffffffffffffffffffffff82169050919050565b60006113ce826113a3565b9050919050565b6113de816113c3565b81146113e957600080fd5b50565b6000813590506113fb816113d5565b92915050565b600080604083850312156114185761141761113b565b5b600061142685828601611166565b9250506020611437858286016113ec565b9150509250929050565b600081519050919050565b600082825260208201905092915050565b6000819050602082019050919050565b61147681611145565b82525050565b6000611488838361146d565b60208301905092915050565b6000602082019050919050565b60006114ac82611441565b6114b6818561144c565b93506114c18361145d565b8060005b838110156114f25781516114d9888261147c565b97506114e483611494565b9250506001810190506114c5565b5085935050505092915050565b6000604082019050818103600083015261151981856114a1565b9050818103602083015261152d81846114a1565b90509392505050565b600081519050919050565b600082825260208201905092915050565b60005b83811015611570578082015181840152602081019050611555565b60008484015250505050565b600061158782611536565b6115918185611541565b93506115a1818560208601611552565b6115aa816111dc565b840191505092915050565b60008115159050919050565b6115ca816115b5565b82525050565b600060e08201905081810360008301526115ea818a61157c565b905081810360208301526115fe818961157c565b905061160d60408301886111a8565b61161a60608301876111a8565b61162760808301866115c1565b61163460a08301856111a8565b61164160c08301846115c1565b98975050505050505050565b600081519050919050565b600082825260208201905092915050565b6000819050602082019050919050565b611682816113c3565b82525050565b60006116948383611679565b60208301905092915050565b6000602082019050919050565b60006116b88261164d565b6116c28185611658565b93506116cd83611669565b8060005b838110156116fe5781516116e58882611688565b97506116f0836116a0565b9250506001810190506116d1565b5085935050505092915050565b600060e0820190508181036000830152611725818a61157c565b90508181036020830152611739818961157c565b905061174860408301886111a8565b61175560608301876111a8565b61176260808301866111a8565b61176f60a08301856115c1565b81810360c083015261178181846116ad565b905098975050505050505050565b7f457870656e736520646f6573206e6f7420657869737400000000000000000000600082015250565b60006117c5601683611541565b91506117d08261178f565b602082019050919050565b600060208201905081810360008301526117f4816117b8565b9050919050565b7f457870656e7365206973207374696c6c20616374697665000000000000000000600082015250565b6000611831601783611541565b915061183c826117fb565b602082019050919050565b6000602082019050818103600083015261186081611824565b9050919050565b7f457870656e736520616c72656164792070616964206f75740000000000000000600082015250565b600061189d601883611541565b91506118a882611867565b602082019050919050565b600060208201905081810360008301526118cc81611890565b9050919050565b7f54617267657420616d6f756e74206e6f74207265616368656400000000000000600082015250565b6000611909601983611541565b9150611914826118d3565b602082019050919050565b60006020820190508181036000830152611938816118fc565b9050919050565b600081905092915050565b50565b600061195a60008361193f565b91506119658261194a565b600082019050919050565b600061197b8261194d565b9150819050919050565b7f4661696c656420746f2073656e642066756e6473000000000000000000000000600082015250565b60006119bb601483611541565b91506119c682611985565b602082019050919050565b600060208201905081810360008301526119ea816119ae565b9050919050565b6000604082019050611a0660008301856111a8565b611a1360208301846111a8565b9392505050565b7f5a65726f2041646472657373206973206e6f7420616c6c6f7765640000000000600082015250565b6000611a50601b83611541565b9150611a5b82611a1a565b602082019050919050565b60006020820190508181036000830152611a7f81611a43565b9050919050565b7f416d6f756e74206d7573742062652067726561746572207468616e2030000000600082015250565b6000611abc601d83611541565b9150611ac782611a86565b602082019050919050565b60006020820190508181036000830152611aeb81611aaf565b9050919050565b7f4e487b7100000000000000000000000000000000000000000000000000000000600052601160045260246000fd5b6000611b2c82611145565b91507fffffffffffffffffffffffffffffffffffffffffffffffffffffffffffffffff8203611b5e57611b5d611af2565b5b600182019050919050565b7f4e487b7100000000000000000000000000000000000000000000000000000000600052602260045260246000fd5b60006002820490506001821680611bb057607f821691505b602082108103611bc357611bc2611b69565b5b50919050565b60008190508160005260206000209050919050565b60006020601f8301049050919050565b600082821b905092915050565b600060088302611c2b7fffffffffffffffffffffffffffffffffffffffffffffffffffffffffffffffff82611bee565b611c358683611bee565b95508019841693508086168417925050509392505050565b6000819050919050565b6000611c72611c6d611c6884611145565b611c4d565b611145565b9050919050565b6000819050919050565b611c8c83611c57565b611ca0611c9882611c79565b848454611bfb565b825550505050565b600090565b611cb5611ca8565b611cc0818484611c83565b505050565b5b81811015611ce457611cd9600082611cad565b600181019050611cc6565b5050565b601f821115611d2957611cfa81611bc9565b611d0384611bde565b81016020851015611d12578190505b611d26611d1e85611bde565b830182611cc5565b50505b505050565b600082821c905092915050565b6000611d4c60001984600802611d2e565b1980831691505092915050565b6000611d658383611d3b565b9150826002028217905092915050565b611d7e82611536565b67ffffffffffffffff811115611d9757611d966111ed565b5b611da18254611b98565b611dac828285611ce8565b600060209050601f831160018114611ddf5760008415611dcd578287015190505b611dd78582611d59565b865550611e3f565b601f198416611ded86611bc9565b60005b82811015611e1557848901518255600182019150602085019450602081019050611df0565b86831015611e325784890151611e2e601f891682611d3b565b8355505b6001600288020188555050505b505050505050565b600060a082019050611e5c60008301886111a8565b8181036020830152611e6e818761157c565b90508181036040830152611e82818661157c565b9050611e9160608301856111a8565b611e9e60808301846111a8565b9695505050505050565b7f4e487b7100000000000000000000000000000000000000000000000000000000600052603260045260246000fd5b6000611ee282611145565b9150611eed83611145565b9250828201905080821115611f0557611f04611af2565b5b92915050565b7f457870656e7365206973206e6f74206163746976650000000000000000000000600082015250565b6000611f41601583611541565b9150611f4c82611f0b565b602082019050919050565b60006020820190508181036000830152611f7081611f34565b9050919050565b7f436f6e747269627574696f6e206d75737420626520677265617465722074686160008201527f6e20300000000000000000000000000000000000000000000000000000000000602082015250565b6000611fd3602383611541565b9150611fde82611f77565b604082019050919050565b6000602082019050818103600083015261200281611fc6565b905091905056fea264697066735822122000de24ce86d1b583cd00b1e091105a30b83191306f0aef3dad7f3cb64a8d96d964736f6c634300081b0033",
  "linkReferences": {},
  "deployedLinkReferences": {}
}